{
  "contractName": "CarbonCredit",
  "abi": [
    {
      "inputs": [
        {
          "internalType": "uint256",
          "name": "initialSupplyAmpunt",
          "type": "uint256"
        }
      ],
      "stateMutability": "nonpayable",
      "type": "constructor"
    },
    {
      "anonymous": false,
      "inputs": [
        {
          "indexed": true,
          "internalType": "address",
          "name": "owner",
          "type": "address"
        },
        {
          "indexed": true,
          "internalType": "address",
          "name": "spender",
          "type": "address"
        },
        {
          "indexed": false,
          "internalType": "uint256",
          "name": "value",
          "type": "uint256"
        }
      ],
      "name": "Approval",
      "type": "event"
    },
    {
      "anonymous": false,
      "inputs": [
        {
          "indexed": true,
          "internalType": "address",
          "name": "EventTriggeredBy",
          "type": "address"
        },
        {
          "indexed": false,
          "internalType": "string",
          "name": "EventAction",
          "type": "string"
        },
        {
          "indexed": false,
          "internalType": "uint256",
          "name": "TokenConsumption",
          "type": "uint256"
        }
      ],
      "name": "SystemLog",
      "type": "event"
    },
    {
      "anonymous": false,
      "inputs": [
        {
          "indexed": true,
          "internalType": "address",
          "name": "from",
          "type": "address"
        },
        {
          "indexed": true,
          "internalType": "address",
          "name": "to",
          "type": "address"
        },
        {
          "indexed": false,
          "internalType": "uint256",
          "name": "value",
          "type": "uint256"
        }
      ],
      "name": "Transfer",
      "type": "event"
    },
    {
      "inputs": [
        {
          "internalType": "address",
          "name": "account",
          "type": "address"
        }
      ],
      "name": "balanceOf",
      "outputs": [
        {
          "internalType": "uint256",
          "name": "",
          "type": "uint256"
        }
      ],
      "stateMutability": "view",
      "type": "function",
      "constant": true
    },
    {
      "inputs": [
        {
          "internalType": "address",
          "name": "",
          "type": "address"
        }
      ],
      "name": "carDetails",
      "outputs": [
        {
          "internalType": "address",
          "name": "maker",
          "type": "address"
        },
        {
          "internalType": "string",
          "name": "carModel",
          "type": "string"
        },
        {
          "internalType": "uint256",
          "name": "tokenConsumed",
          "type": "uint256"
        }
      ],
      "stateMutability": "view",
      "type": "function",
      "constant": true
    },
    {
      "inputs": [
        {
          "internalType": "address",
          "name": "",
          "type": "address"
        },
        {
          "internalType": "uint256",
          "name": "",
          "type": "uint256"
        }
      ],
      "name": "carList",
      "outputs": [
        {
          "internalType": "address",
          "name": "",
          "type": "address"
        }
      ],
      "stateMutability": "view",
      "type": "function",
      "constant": true
    },
    {
      "inputs": [
        {
          "internalType": "address",
          "name": "",
          "type": "address"
        }
      ],
      "name": "componentDetails",
      "outputs": [
        {
          "internalType": "address",
          "name": "maker",
          "type": "address"
        },
        {
          "internalType": "string",
          "name": "componentName",
          "type": "string"
        },
        {
          "internalType": "uint256",
          "name": "quantity",
          "type": "uint256"
        },
        {
          "internalType": "uint256",
          "name": "tokenConsumed",
          "type": "uint256"
        }
      ],
      "stateMutability": "view",
      "type": "function",
      "constant": true
    },
    {
      "inputs": [
        {
          "internalType": "address",
          "name": "",
          "type": "address"
        },
        {
          "internalType": "uint256",
          "name": "",
          "type": "uint256"
        }
      ],
      "name": "componentList",
      "outputs": [
        {
          "internalType": "address",
          "name": "",
          "type": "address"
        }
      ],
      "stateMutability": "view",
      "type": "function",
      "constant": true
    },
    {
      "inputs": [],
      "name": "decimals",
      "outputs": [
        {
          "internalType": "uint8",
          "name": "",
          "type": "uint8"
        }
      ],
      "stateMutability": "pure",
      "type": "function",
      "constant": true
    },
    {
      "inputs": [],
      "name": "name",
      "outputs": [
        {
          "internalType": "string",
          "name": "",
          "type": "string"
        }
      ],
      "stateMutability": "view",
      "type": "function",
      "constant": true
    },
    {
      "inputs": [],
      "name": "symbol",
      "outputs": [
        {
          "internalType": "string",
          "name": "",
          "type": "string"
        }
      ],
      "stateMutability": "view",
      "type": "function",
      "constant": true
    },
    {
      "inputs": [],
      "name": "totalSupply",
      "outputs": [
        {
          "internalType": "uint256",
          "name": "",
          "type": "uint256"
        }
      ],
      "stateMutability": "view",
      "type": "function",
      "constant": true
    },
    {
      "inputs": [
        {
          "internalType": "address",
          "name": "",
          "type": "address"
        }
      ],
      "name": "userDetails",
      "outputs": [
        {
          "internalType": "string",
          "name": "userName",
          "type": "string"
        },
        {
          "internalType": "string",
          "name": "userLocation",
          "type": "string"
        },
        {
          "internalType": "string",
          "name": "userType",
          "type": "string"
        }
      ],
      "stateMutability": "view",
      "type": "function",
      "constant": true
    },
    {
      "inputs": [
        {
          "internalType": "uint256",
          "name": "",
          "type": "uint256"
        }
      ],
      "name": "userList",
      "outputs": [
        {
          "internalType": "address",
          "name": "",
          "type": "address"
        }
      ],
      "stateMutability": "view",
      "type": "function",
      "constant": true
    },
    {
      "inputs": [],
      "name": "userListCOunt",
      "outputs": [
        {
          "internalType": "uint256",
          "name": "",
          "type": "uint256"
        }
      ],
      "stateMutability": "view",
      "type": "function",
      "constant": true
    },
    {
      "inputs": [],
      "name": "depositeEther",
      "outputs": [],
      "stateMutability": "payable",
      "type": "function",
      "payable": true
    },
    {
      "inputs": [
        {
          "internalType": "uint256",
          "name": "amount",
          "type": "uint256"
        }
      ],
      "name": "withdrawEther",
      "outputs": [],
      "stateMutability": "nonpayable",
      "type": "function"
    },
    {
      "inputs": [
        {
          "internalType": "uint256",
          "name": "amount",
          "type": "uint256"
        }
      ],
      "name": "issueCC",
      "outputs": [],
      "stateMutability": "nonpayable",
      "type": "function"
    },
    {
      "inputs": [
        {
          "internalType": "uint256",
          "name": "amount",
          "type": "uint256"
        }
      ],
      "name": "depositeCC",
      "outputs": [],
      "stateMutability": "nonpayable",
      "type": "function"
    },
    {
      "inputs": [],
      "name": "getCC",
      "outputs": [],
      "stateMutability": "payable",
      "type": "function",
      "payable": true
    },
    {
      "inputs": [
        {
          "internalType": "uint256",
          "name": "amount",
          "type": "uint256"
        }
      ],
      "name": "givebackCC",
      "outputs": [],
      "stateMutability": "nonpayable",
      "type": "function"
    },
    {
      "inputs": [
        {
          "internalType": "address",
          "name": "did",
          "type": "address"
        }
      ],
      "name": "removeUser",
      "outputs": [],
      "stateMutability": "nonpayable",
      "type": "function"
    },
    {
      "inputs": [
        {
          "internalType": "address",
          "name": "_MangerAddress",
          "type": "address"
        }
      ],
      "name": "addManger",
      "outputs": [],
      "stateMutability": "nonpayable",
      "type": "function"
    },
    {
      "inputs": [
        {
          "internalType": "address",
          "name": "_MangerAddress",
          "type": "address"
        }
      ],
      "name": "removeManger",
      "outputs": [],
      "stateMutability": "nonpayable",
      "type": "function"
    },
    {
      "inputs": [
        {
          "internalType": "address",
          "name": "_did",
          "type": "address"
        },
        {
          "internalType": "string",
          "name": "_userName",
          "type": "string"
        },
        {
          "internalType": "string",
          "name": "_userLocation",
          "type": "string"
        },
        {
          "internalType": "string",
          "name": "_userType",
          "type": "string"
        }
      ],
      "name": "newUser",
      "outputs": [],
      "stateMutability": "nonpayable",
      "type": "function"
    },
    {
      "inputs": [
        {
          "internalType": "address[]",
          "name": "initialSupplyAddressList",
          "type": "address[]"
        },
        {
          "internalType": "uint256",
          "name": "listCount",
          "type": "uint256"
        },
        {
          "internalType": "uint256",
          "name": "initialSupplyAmpunt",
          "type": "uint256"
        }
      ],
      "name": "initialSupply",
      "outputs": [],
      "stateMutability": "nonpayable",
      "type": "function"
    },
    {
      "inputs": [
        {
          "internalType": "address",
          "name": "userDID",
          "type": "address"
        }
      ],
      "name": "getComponentList",
      "outputs": [
        {
          "internalType": "address[]",
          "name": "",
          "type": "address[]"
        }
      ],
      "stateMutability": "view",
      "type": "function",
      "constant": true
    },
    {
      "inputs": [
        {
          "internalType": "address",
          "name": "componetID",
          "type": "address"
        },
        {
          "internalType": "string",
          "name": "componentName",
          "type": "string"
        },
        {
          "internalType": "uint256",
          "name": "quantity",
          "type": "uint256"
        },
        {
          "internalType": "uint256",
          "name": "tokenConsumed",
          "type": "uint256"
        }
      ],
      "name": "produceComponet",
      "outputs": [],
      "stateMutability": "nonpayable",
      "type": "function"
    },
    {
      "inputs": [
        {
          "internalType": "address",
          "name": "userDID",
          "type": "address"
        },
        {
          "internalType": "address",
          "name": "componetID",
          "type": "address"
        }
      ],
      "name": "sendToOEM",
      "outputs": [],
      "stateMutability": "nonpayable",
      "type": "function"
    },
    {
      "inputs": [
        {
          "internalType": "address",
          "name": "userDID",
          "type": "address"
        }
      ],
      "name": "getCarList",
      "outputs": [
        {
          "internalType": "address[]",
          "name": "",
          "type": "address[]"
        }
      ],
      "stateMutability": "view",
      "type": "function",
      "constant": true
    },
    {
      "inputs": [
        {
          "internalType": "address",
          "name": "carDID",
          "type": "address"
        }
      ],
      "name": "getCarDetails",
      "outputs": [
        {
          "internalType": "address",
          "name": "",
          "type": "address"
        },
        {
          "internalType": "string",
          "name": "",
          "type": "string"
        },
        {
          "internalType": "uint256",
          "name": "",
          "type": "uint256"
        },
        {
          "internalType": "address[]",
          "name": "",
          "type": "address[]"
        }
      ],
      "stateMutability": "view",
      "type": "function",
      "constant": true
    },
    {
      "inputs": [
        {
          "internalType": "address",
          "name": "componetID",
          "type": "address"
        },
        {
          "internalType": "string",
          "name": "carModel",
          "type": "string"
        },
        {
          "internalType": "uint256",
          "name": "tokenConsumed",
          "type": "uint256"
        },
        {
          "internalType": "address[]",
          "name": "componetList",
          "type": "address[]"
        }
      ],
      "name": "assembleCar",
      "outputs": [],
      "stateMutability": "nonpayable",
      "type": "function"
    }
  ],
  "bytecode": "0x608060405260006007553480156200001657600080fd5b506040516200410d3803806200410d833981810160405260208110156200003c57600080fd5b81019080805190602001909291905050506040518060400160405280600d81526020017f436172626f6e20437265646974000000000000000000000000000000000000008152506040518060400160405280600281526020017f43520000000000000000000000000000000000000000000000000000000000008152508160039080519060200190620000d192919062000606565b508060049080519060200190620000ea92919062000606565b50505033600560006101000a81548173ffffffffffffffffffffffffffffffffffffffff021916908373ffffffffffffffffffffffffffffffffffffffff1602179055506200014933600a620002d860201b6200311a1790919060201c565b6200015b3382620003bc60201b60201c565b6200017830600283816200016b57fe5b04620003bc60201b60201c565b60405180606001604052806040518060400160405280600781526020017f4d616e616765720000000000000000000000000000000000000000000000000081525081526020016040518060400160405280600681526020017f4c6f6e646f6e000000000000000000000000000000000000000000000000000081525081526020016040518060400160405280600581526020017f41646d696e000000000000000000000000000000000000000000000000000000815250815250600b60003373ffffffffffffffffffffffffffffffffffffffff1673ffffffffffffffffffffffffffffffffffffffff16815260200190815260200160002060008201518160000190805190602001906200028f92919062000606565b506020820151816001019080519060200190620002ae92919062000606565b506040820151816002019080519060200190620002cd92919062000606565b5090505050620006ac565b620002ea82826200052660201b60201c565b156200035e576040517f08c379a000000000000000000000000000000000000000000000000000000000815260040180806020018281038252601f8152602001807f526f6c65733a206163636f756e7420616c72656164792068617320726f6c650081525060200191505060405180910390fd5b60018260000160008373ffffffffffffffffffffffffffffffffffffffff1673ffffffffffffffffffffffffffffffffffffffff16815260200190815260200160002060006101000a81548160ff0219169083151502179055505050565b600073ffffffffffffffffffffffffffffffffffffffff168273ffffffffffffffffffffffffffffffffffffffff16141562000460576040517f08c379a000000000000000000000000000000000000000000000000000000000815260040180806020018281038252601f8152602001807f45524332303a206d696e7420746f20746865207a65726f20616464726573730081525060200191505060405180910390fd5b80600260008282540192505081905550806000808473ffffffffffffffffffffffffffffffffffffffff1673ffffffffffffffffffffffffffffffffffffffff168152602001908152602001600020600082825401925050819055508173ffffffffffffffffffffffffffffffffffffffff16600073ffffffffffffffffffffffffffffffffffffffff167fddf252ad1be2c89b69c2b068fc378daa952ba7f163c4a11628f55a4df523b3ef836040518082815260200191505060405180910390a35050565b60008073ffffffffffffffffffffffffffffffffffffffff168273ffffffffffffffffffffffffffffffffffffffff161415620005af576040517f08c379a0000000000000000000000000000000000000000000000000000000008152600401808060200182810382526022815260200180620040eb6022913960400191505060405180910390fd5b8260000160008373ffffffffffffffffffffffffffffffffffffffff1673ffffffffffffffffffffffffffffffffffffffff16815260200190815260200160002060009054906101000a900460ff16905092915050565b828054600181600116156101000203166002900490600052602060002090601f016020900481019282601f106200064957805160ff19168380011785556200067a565b828001600101855582156200067a579182015b82811115620006795782518255916020019190600101906200065c565b5b5090506200068991906200068d565b5090565b5b80821115620006a85760008160009055506001016200068e565b5090565b613a2f80620006bc6000396000f3fe6080604052600436106101c25760003560e01c8063882de0e4116100f7578063bbadf69511610095578063e5a4499a11610064578063e5a4499a14611186578063e799b3f514611190578063e8911c131461119a578063fd17f7fb1461121f576101c2565b8063bbadf69514610f01578063bc6b748d14610f52578063be9abc9214611047578063ca7352ed14611098576101c2565b806398575188116100d15780639857518814610d205780639af8fd6514610d715780639f4216e814610e17578063a88aa2fc14610e7c576101c2565b8063882de0e414610944578063959d529714610a7a57806395d89b4114610c90576101c2565b80633bf65fce1161016457806348dec2a71161013e57806348dec2a71461065c5780636ddab644146107fe57806370a08231146108a45780637e0dc9a614610909576101c2565b80633bf65fce1461051d5780633d7d3224146105f657806340759afc14610631576101c2565b80632a9109d8116101a05780632a9109d8146102f3578063313ce5671461032e5780633bb061b61461035c5780633bed33ce146104e2576101c2565b806306fdde03146101c757806318160ddd14610257578063223b544e14610282575b600080fd5b3480156101d357600080fd5b506101dc61131b565b6040518080602001828103825283818151815260200191508051906020019080838360005b8381101561021c578082015181840152602081019050610201565b50505050905090810190601f1680156102495780820380516001836020036101000a031916815260200191505b509250505060405180910390f35b34801561026357600080fd5b5061026c6113bd565b6040518082815260200191505060405180910390f35b34801561028e57600080fd5b506102f1600480360360408110156102a557600080fd5b81019080803573ffffffffffffffffffffffffffffffffffffffff169060200190929190803573ffffffffffffffffffffffffffffffffffffffff1690602001909291905050506113c7565b005b3480156102ff57600080fd5b5061032c6004803603602081101561031657600080fd5b8101908080359060200190929190505050611544565b005b34801561033a57600080fd5b50610343611626565b604051808260ff16815260200191505060405180910390f35b34801561036857600080fd5b506104e06004803603608081101561037f57600080fd5b81019080803573ffffffffffffffffffffffffffffffffffffffff169060200190929190803590602001906401000000008111156103bc57600080fd5b8201836020820111156103ce57600080fd5b803590602001918460018302840111640100000000831117156103f057600080fd5b91908080601f016020809104026020016040519081016040528093929190818152602001838380828437600081840152601f19601f820116905080830192505050505050509192919290803590602001909291908035906020019064010000000081111561045d57600080fd5b82018360208201111561046f57600080fd5b8035906020019184602083028401116401000000008311171561049157600080fd5b919080806020026020016040519081016040528093929190818152602001838360200280828437600081840152601f19601f82011690508083019250505050505050919291929050505061162f565b005b3480156104ee57600080fd5b5061051b6004803603602081101561050557600080fd5b810190808035906020019092919050505061190b565b005b34801561052957600080fd5b506105f46004803603606081101561054057600080fd5b810190808035906020019064010000000081111561055d57600080fd5b82018360208201111561056f57600080fd5b8035906020019184602083028401116401000000008311171561059157600080fd5b919080806020026020016040519081016040528093929190818152602001838360200280828437600081840152601f19601f8201169050808301925050505050505091929192908035906020019092919080359060200190929190505050611a6d565b005b34801561060257600080fd5b5061062f6004803603602081101561061957600080fd5b8101908080359060200190929190505050611bdd565b005b34801561063d57600080fd5b50610646611cdb565b6040518082815260200191505060405180910390f35b34801561066857600080fd5b506106ab6004803603602081101561067f57600080fd5b81019080803573ffffffffffffffffffffffffffffffffffffffff169060200190929190505050611ce1565b60405180806020018060200180602001848103845287818151815260200191508051906020019080838360005b838110156106f35780820151818401526020810190506106d8565b50505050905090810190601f1680156107205780820380516001836020036101000a031916815260200191505b50848103835286818151815260200191508051906020019080838360005b8381101561075957808201518184015260208101905061073e565b50505050905090810190601f1680156107865780820380516001836020036101000a031916815260200191505b50848103825285818151815260200191508051906020019080838360005b838110156107bf5780820151818401526020810190506107a4565b50505050905090810190601f1680156107ec5780820380516001836020036101000a031916815260200191505b50965050505050505060405180910390f35b34801561080a57600080fd5b5061084d6004803603602081101561082157600080fd5b81019080803573ffffffffffffffffffffffffffffffffffffffff169060200190929190505050611ed3565b6040518080602001828103825283818151815260200191508051906020019060200280838360005b83811015610890578082015181840152602081019050610875565b505050509050019250505060405180910390f35b3480156108b057600080fd5b506108f3600480360360208110156108c757600080fd5b81019080803573ffffffffffffffffffffffffffffffffffffffff169060200190929190505050611fa0565b6040518082815260200191505060405180910390f35b34801561091557600080fd5b506109426004803603602081101561092c57600080fd5b8101908080359060200190929190505050611fe8565b005b34801561095057600080fd5b506109936004803603602081101561096757600080fd5b81019080803573ffffffffffffffffffffffffffffffffffffffff169060200190929190505050612102565b604051808573ffffffffffffffffffffffffffffffffffffffff1681526020018060200184815260200180602001838103835286818151815260200191508051906020019080838360005b838110156109f95780820151818401526020810190506109de565b50505050905090810190601f168015610a265780820380516001836020036101000a031916815260200191505b50838103825284818151815260200191508051906020019060200280838360005b83811015610a62578082015181840152602081019050610a47565b50505050905001965050505050505060405180910390f35b348015610a8657600080fd5b50610c8e60048036036080811015610a9d57600080fd5b81019080803573ffffffffffffffffffffffffffffffffffffffff16906020019092919080359060200190640100000000811115610ada57600080fd5b820183602082011115610aec57600080fd5b80359060200191846001830284011164010000000083111715610b0e57600080fd5b91908080601f016020809104026020016040519081016040528093929190818152602001838380828437600081840152601f19601f82011690508083019250505050505050919291929080359060200190640100000000811115610b7157600080fd5b820183602082011115610b8357600080fd5b80359060200191846001830284011164010000000083111715610ba557600080fd5b91908080601f016020809104026020016040519081016040528093929190818152602001838380828437600081840152601f19601f82011690508083019250505050505050919291929080359060200190640100000000811115610c0857600080fd5b820183602082011115610c1a57600080fd5b80359060200191846001830284011164010000000083111715610c3c57600080fd5b91908080601f016020809104026020016040519081016040528093929190818152602001838380828437600081840152601f19601f820116905080830192505050505050509192919290505050612367565b005b348015610c9c57600080fd5b50610ca561251d565b6040518080602001828103825283818151815260200191508051906020019080838360005b83811015610ce5578082015181840152602081019050610cca565b50505050905090810190601f168015610d125780820380516001836020036101000a031916815260200191505b509250505060405180910390f35b348015610d2c57600080fd5b50610d6f60048036036020811015610d4357600080fd5b81019080803573ffffffffffffffffffffffffffffffffffffffff1690602001909291905050506125bf565b005b348015610d7d57600080fd5b50610dc060048036036020811015610d9457600080fd5b81019080803573ffffffffffffffffffffffffffffffffffffffff16906020019092919050505061275c565b6040518080602001828103825283818151815260200191508051906020019060200280838360005b83811015610e03578082015181840152602081019050610de8565b505050509050019250505060405180910390f35b348015610e2357600080fd5b50610e5060048036036020811015610e3a57600080fd5b8101908080359060200190929190505050612829565b604051808273ffffffffffffffffffffffffffffffffffffffff16815260200191505060405180910390f35b348015610e8857600080fd5b50610ed560048036036040811015610e9f57600080fd5b81019080803573ffffffffffffffffffffffffffffffffffffffff16906020019092919080359060200190929190505050612865565b604051808273ffffffffffffffffffffffffffffffffffffffff16815260200191505060405180910390f35b348015610f0d57600080fd5b50610f5060048036036020811015610f2457600080fd5b81019080803573ffffffffffffffffffffffffffffffffffffffff1690602001909291905050506128b0565b005b348015610f5e57600080fd5b50610fa160048036036020811015610f7557600080fd5b81019080803573ffffffffffffffffffffffffffffffffffffffff1690602001909291905050506129d5565b604051808573ffffffffffffffffffffffffffffffffffffffff16815260200180602001848152602001838152602001828103825285818151815260200191508051906020019080838360005b83811015611009578082015181840152602081019050610fee565b50505050905090810190601f1680156110365780820380516001836020036101000a031916815260200191505b509550505050505060405180910390f35b34801561105357600080fd5b506110966004803603602081101561106a57600080fd5b81019080803573ffffffffffffffffffffffffffffffffffffffff169060200190929190505050612abd565b005b3480156110a457600080fd5b506110e7600480360360208110156110bb57600080fd5b81019080803573ffffffffffffffffffffffffffffffffffffffff169060200190929190505050612be2565b604051808473ffffffffffffffffffffffffffffffffffffffff16815260200180602001838152602001828103825284818151815260200191508051906020019080838360005b8381101561114957808201518184015260208101905061112e565b50505050905090810190601f1680156111765780820380516001836020036101000a031916815260200191505b5094505050505060405180910390f35b61118e612cc4565b005b611198612d74565b005b3480156111a657600080fd5b506111f3600480360360408110156111bd57600080fd5b81019080803573ffffffffffffffffffffffffffffffffffffffff16906020019092919080359060200190929190505050612e84565b604051808273ffffffffffffffffffffffffffffffffffffffff16815260200191505060405180910390f35b34801561122b57600080fd5b506113196004803603608081101561124257600080fd5b81019080803573ffffffffffffffffffffffffffffffffffffffff1690602001909291908035906020019064010000000081111561127f57600080fd5b82018360208201111561129157600080fd5b803590602001918460018302840111640100000000831117156112b357600080fd5b91908080601f016020809104026020016040519081016040528093929190818152602001838380828437600081840152601f19601f8201169050808301925050505050505091929192908035906020019092919080359060200190929190505050612ecf565b005b606060038054600181600116156101000203166002900480601f0160208091040260200160405190810160405280929190818152602001828054600181600116156101000203166002900480156113b35780601f10611388576101008083540402835291602001916113b3565b820191906000526020600020905b81548152906001019060200180831161139657829003601f168201915b5050505050905090565b6000600254905090565b600860008373ffffffffffffffffffffffffffffffffffffffff1673ffffffffffffffffffffffffffffffffffffffff168152602001908152602001600020819080600181540180825580915050600190039060005260206000200160009091909190916101000a81548173ffffffffffffffffffffffffffffffffffffffff021916908373ffffffffffffffffffffffffffffffffffffffff1602179055506001600c60008373ffffffffffffffffffffffffffffffffffffffff1673ffffffffffffffffffffffffffffffffffffffff168152602001908152602001600020600201600082825403925050819055503373ffffffffffffffffffffffffffffffffffffffff167facb7af540ed58b4d1a997f57403767eeb59a31a63d0af8fe837a3e75a7485e1260006040518080602001838152602001828103825260128152602001807f5472616e7366657272656420746f204f454d00000000000000000000000000008152506020019250505060405180910390a25050565b61154e30826131f5565b503373ffffffffffffffffffffffffffffffffffffffff166108fc6305f5e10083029081150290604051600060405180830381858888f1935050505015801561159b573d6000803e3d6000fd5b503373ffffffffffffffffffffffffffffffffffffffff167facb7af540ed58b4d1a997f57403767eeb59a31a63d0af8fe837a3e75a7485e12826040518080602001838152602001828103825260168152602001807f52657475726e656420436172626f6e20437265646974000000000000000000008152506020019250505060405180910390a250565b60006003905090565b60405180608001604052803373ffffffffffffffffffffffffffffffffffffffff16815260200184815260200183815260200182815250600d60008673ffffffffffffffffffffffffffffffffffffffff1673ffffffffffffffffffffffffffffffffffffffff16815260200190815260200160002060008201518160000160006101000a81548173ffffffffffffffffffffffffffffffffffffffff021916908373ffffffffffffffffffffffffffffffffffffffff16021790555060208201518160010190805190602001906117089291906137c3565b5060408201518160020155606082015181600301908051906020019061172f929190613843565b5090505060005b81518110156117b0576001600c600084848151811061175157fe5b602002602001015173ffffffffffffffffffffffffffffffffffffffff1673ffffffffffffffffffffffffffffffffffffffff168152602001908152602001600020600201600082825403925050819055508080600101915050611736565b506117dd600560009054906101000a900473ffffffffffffffffffffffffffffffffffffffff16836131f5565b50600960003373ffffffffffffffffffffffffffffffffffffffff1673ffffffffffffffffffffffffffffffffffffffff168152602001908152602001600020849080600181540180825580915050600190039060005260206000200160009091909190916101000a81548173ffffffffffffffffffffffffffffffffffffffff021916908373ffffffffffffffffffffffffffffffffffffffff1602179055503373ffffffffffffffffffffffffffffffffffffffff167facb7af540ed58b4d1a997f57403767eeb59a31a63d0af8fe837a3e75a7485e128360405180806020018381526020018281038252600d8152602001807f43617220417373656d626c6564000000000000000000000000000000000000008152506020019250505060405180910390a250505050565b61191f33600a61321390919063ffffffff16565b611991576040517f08c379a00000000000000000000000000000000000000000000000000000000081526004018080602001828103825260188152602001807f4e6f7420616e20617574686f72697a656420506572736f6e000000000000000081525060200191505060405180910390fd5b3373ffffffffffffffffffffffffffffffffffffffff166108fc670de0b6b3a764000083029081150290604051600060405180830381858888f193505050501580156119e1573d6000803e3d6000fd5b503373ffffffffffffffffffffffffffffffffffffffff167facb7af540ed58b4d1a997f57403767eeb59a31a63d0af8fe837a3e75a7485e12600060405180806020018381526020018281038252601d8152602001807f45746865722077697468647261776e2066726f6d20636f6e74726163740000008152506020019250505060405180910390a250565b611a8133600a61321390919063ffffffff16565b611af3576040517f08c379a00000000000000000000000000000000000000000000000000000000081526004018080602001828103825260188152602001807f4e6f7420616e20617574686f72697a656420506572736f6e000000000000000081525060200191505060405180910390fd5b8082023373ffffffffffffffffffffffffffffffffffffffff163111611b1857600080fd5b60005b82811015611b4e57611b40848281518110611b3257fe5b6020026020010151836131f5565b508080600101915050611b1b565b503373ffffffffffffffffffffffffffffffffffffffff167facb7af540ed58b4d1a997f57403767eeb59a31a63d0af8fe837a3e75a7485e1282840260405180806020018381526020018281038252600e8152602001807f496e697469616c20537570706c790000000000000000000000000000000000008152506020019250505060405180910390a2505050565b611bf133600a61321390919063ffffffff16565b611c63576040517f08c379a00000000000000000000000000000000000000000000000000000000081526004018080602001828103825260188152602001807f4e6f7420616e20617574686f72697a656420506572736f6e000000000000000081525060200191505060405180910390fd5b611c6d30826131f5565b503373ffffffffffffffffffffffffffffffffffffffff167facb7af540ed58b4d1a997f57403767eeb59a31a63d0af8fe837a3e75a7485e1282604051808060200183815260200182810382526023815260200180613990602391396040019250505060405180910390a250565b60075481565b600b602052806000526040600020600091509050806000018054600181600116156101000203166002900480601f016020809104026020016040519081016040528092919081815260200182805460018160011615610100020316600290048015611d8d5780601f10611d6257610100808354040283529160200191611d8d565b820191906000526020600020905b815481529060010190602001808311611d7057829003601f168201915b505050505090806001018054600181600116156101000203166002900480601f016020809104026020016040519081016040528092919081815260200182805460018160011615610100020316600290048015611e2b5780601f10611e0057610100808354040283529160200191611e2b565b820191906000526020600020905b815481529060010190602001808311611e0e57829003601f168201915b505050505090806002018054600181600116156101000203166002900480601f016020809104026020016040519081016040528092919081815260200182805460018160011615610100020316600290048015611ec95780601f10611e9e57610100808354040283529160200191611ec9565b820191906000526020600020905b815481529060010190602001808311611eac57829003601f168201915b5050505050905083565b6060600960008373ffffffffffffffffffffffffffffffffffffffff1673ffffffffffffffffffffffffffffffffffffffff168152602001908152602001600020805480602002602001604051908101604052809291908181526020018280548015611f9457602002820191906000526020600020905b8160009054906101000a900473ffffffffffffffffffffffffffffffffffffffff1673ffffffffffffffffffffffffffffffffffffffff1681526020019060010190808311611f4a575b50505050509050919050565b60008060008373ffffffffffffffffffffffffffffffffffffffff1673ffffffffffffffffffffffffffffffffffffffff168152602001908152602001600020549050919050565b611ffc33600a61321390919063ffffffff16565b61206e576040517f08c379a00000000000000000000000000000000000000000000000000000000081526004018080602001828103825260188152602001807f4e6f7420616e20617574686f72697a656420506572736f6e000000000000000081525060200191505060405180910390fd5b61207833826132f1565b3373ffffffffffffffffffffffffffffffffffffffff167facb7af540ed58b4d1a997f57403767eeb59a31a63d0af8fe837a3e75a7485e12826040518080602001838152602001828103825260158152602001807f436172626f6e20437265646974732049737375656400000000000000000000008152506020019250505060405180910390a250565b6000606060006060600d60008673ffffffffffffffffffffffffffffffffffffffff1673ffffffffffffffffffffffffffffffffffffffff16815260200190815260200160002060000160009054906101000a900473ffffffffffffffffffffffffffffffffffffffff16600d60008773ffffffffffffffffffffffffffffffffffffffff1673ffffffffffffffffffffffffffffffffffffffff168152602001908152602001600020600101600d60008873ffffffffffffffffffffffffffffffffffffffff1673ffffffffffffffffffffffffffffffffffffffff16815260200190815260200160002060020154600d60008973ffffffffffffffffffffffffffffffffffffffff1673ffffffffffffffffffffffffffffffffffffffff168152602001908152602001600020600301828054600181600116156101000203166002900480601f0160208091040260200160405190810160405280929190818152602001828054600181600116156101000203166002900480156122c95780601f1061229e576101008083540402835291602001916122c9565b820191906000526020600020905b8154815290600101906020018083116122ac57829003601f168201915b505050505092508080548060200260200160405190810160405280929190818152602001828054801561235157602002820191906000526020600020905b8160009054906101000a900473ffffffffffffffffffffffffffffffffffffffff1673ffffffffffffffffffffffffffffffffffffffff1681526020019060010190808311612307575b5050505050905093509350935093509193509193565b604051806060016040528084815260200183815260200182815250600b60008673ffffffffffffffffffffffffffffffffffffffff1673ffffffffffffffffffffffffffffffffffffffff16815260200190815260200160002060008201518160000190805190602001906123dd9291906137c3565b5060208201518160010190805190602001906123fa9291906137c3565b5060408201518160020190805190602001906124179291906137c3565b509050506006849080600181540180825580915050600190039060005260206000200160009091909190916101000a81548173ffffffffffffffffffffffffffffffffffffffff021916908373ffffffffffffffffffffffffffffffffffffffff16021790555060016007600082825401925050819055503373ffffffffffffffffffffffffffffffffffffffff167facb7af540ed58b4d1a997f57403767eeb59a31a63d0af8fe837a3e75a7485e1260006040518080602001838152602001828103825260088152602001807f4e657720557365720000000000000000000000000000000000000000000000008152506020019250505060405180910390a250505050565b606060048054600181600116156101000203166002900480601f0160208091040260200160405190810160405280929190818152602001828054600181600116156101000203166002900480156125b55780601f1061258a576101008083540402835291602001916125b5565b820191906000526020600020905b81548152906001019060200180831161259857829003601f168201915b5050505050905090565b6125d333600a61321390919063ffffffff16565b612645576040517f08c379a00000000000000000000000000000000000000000000000000000000081526004018080602001828103825260188152602001807f4e6f7420616e20617574686f72697a656420506572736f6e000000000000000081525060200191505060405180910390fd5b6040518060400160405280600681526020017f42616e6e65640000000000000000000000000000000000000000000000000000815250600b60008373ffffffffffffffffffffffffffffffffffffffff1673ffffffffffffffffffffffffffffffffffffffff16815260200190815260200160002060020190805190602001906126d09291906137c3565b503373ffffffffffffffffffffffffffffffffffffffff167facb7af540ed58b4d1a997f57403767eeb59a31a63d0af8fe837a3e75a7485e12600060405180806020018381526020018281038252600c8152602001807f52656d6f766564205573657200000000000000000000000000000000000000008152506020019250505060405180910390a250565b6060600860008373ffffffffffffffffffffffffffffffffffffffff1673ffffffffffffffffffffffffffffffffffffffff16815260200190815260200160002080548060200260200160405190810160405280929190818152602001828054801561281d57602002820191906000526020600020905b8160009054906101000a900473ffffffffffffffffffffffffffffffffffffffff1673ffffffffffffffffffffffffffffffffffffffff16815260200190600101908083116127d3575b50505050509050919050565b6006818154811061283657fe5b906000526020600020016000915054906101000a900473ffffffffffffffffffffffffffffffffffffffff1681565b6008602052816000526040600020818154811061287e57fe5b906000526020600020016000915091509054906101000a900473ffffffffffffffffffffffffffffffffffffffff1681565b6128c433600a61321390919063ffffffff16565b612936576040517f08c379a00000000000000000000000000000000000000000000000000000000081526004018080602001828103825260188152602001807f4e6f7420616e20617574686f72697a656420506572736f6e000000000000000081525060200191505060405180910390fd5b61294a81600a61345a90919063ffffffff16565b3373ffffffffffffffffffffffffffffffffffffffff167facb7af540ed58b4d1a997f57403767eeb59a31a63d0af8fe837a3e75a7485e12600060405180806020018381526020018281038252601d8152602001807f52656d6f766564204d616e6167657220417574686f72697a6174696f6e0000008152506020019250505060405180910390a250565b600c6020528060005260406000206000915090508060000160009054906101000a900473ffffffffffffffffffffffffffffffffffffffff1690806001018054600181600116156101000203166002900480601f016020809104026020016040519081016040528092919081815260200182805460018160011615610100020316600290048015612aa75780601f10612a7c57610100808354040283529160200191612aa7565b820191906000526020600020905b815481529060010190602001808311612a8a57829003601f168201915b5050505050908060020154908060030154905084565b612ad133600a61321390919063ffffffff16565b612b43576040517f08c379a00000000000000000000000000000000000000000000000000000000081526004018080602001828103825260188152602001807f4e6f7420616e20617574686f72697a656420506572736f6e000000000000000081525060200191505060405180910390fd5b612b5781600a61311a90919063ffffffff16565b3373ffffffffffffffffffffffffffffffffffffffff167facb7af540ed58b4d1a997f57403767eeb59a31a63d0af8fe837a3e75a7485e1260006040518080602001838152602001828103825260128152602001807f417574686f72697a6564204d616e6167657200000000000000000000000000008152506020019250505060405180910390a250565b600d6020528060005260406000206000915090508060000160009054906101000a900473ffffffffffffffffffffffffffffffffffffffff1690806001018054600181600116156101000203166002900480601f016020809104026020016040519081016040528092919081815260200182805460018160011615610100020316600290048015612cb45780601f10612c8957610100808354040283529160200191612cb4565b820191906000526020600020905b815481529060010190602001808311612c9757829003601f168201915b5050505050908060020154905083565b612cdd30336402540be4003481612cd757fe5b04613517565b3373ffffffffffffffffffffffffffffffffffffffff167facb7af540ed58b4d1a997f57403767eeb59a31a63d0af8fe837a3e75a7485e126402540be4003481612d2357fe5b046040518080602001838152602001828103825260148152602001807f426f7567687420436172626f6e204372656469740000000000000000000000008152506020019250505060405180910390a2565b612d8833600a61321390919063ffffffff16565b612dfa576040517f08c379a00000000000000000000000000000000000000000000000000000000081526004018080602001828103825260188152602001807f4e6f7420616e20617574686f72697a656420506572736f6e000000000000000081525060200191505060405180910390fd5b3373ffffffffffffffffffffffffffffffffffffffff167facb7af540ed58b4d1a997f57403767eeb59a31a63d0af8fe837a3e75a7485e12600060405180806020018381526020018281038252601b8152602001807f4574686572204465706f736974656420746f20434f6e747261637400000000008152506020019250505060405180910390a2565b60096020528160005260406000208181548110612e9d57fe5b906000526020600020016000915091509054906101000a900473ffffffffffffffffffffffffffffffffffffffff1681565b60405180608001604052803373ffffffffffffffffffffffffffffffffffffffff16815260200184815260200183815260200182815250600c60008673ffffffffffffffffffffffffffffffffffffffff1673ffffffffffffffffffffffffffffffffffffffff16815260200190815260200160002060008201518160000160006101000a81548173ffffffffffffffffffffffffffffffffffffffff021916908373ffffffffffffffffffffffffffffffffffffffff1602179055506020820151816001019080519060200190612fa89291906137c3565b506040820151816002015560608201518160030155905050612fec600560009054906101000a900473ffffffffffffffffffffffffffffffffffffffff16826131f5565b50600860003373ffffffffffffffffffffffffffffffffffffffff1673ffffffffffffffffffffffffffffffffffffffff168152602001908152602001600020849080600181540180825580915050600190039060005260206000200160009091909190916101000a81548173ffffffffffffffffffffffffffffffffffffffff021916908373ffffffffffffffffffffffffffffffffffffffff1602179055503373ffffffffffffffffffffffffffffffffffffffff167facb7af540ed58b4d1a997f57403767eeb59a31a63d0af8fe837a3e75a7485e12826040518080602001838152602001828103825260168152602001807f4e657720436f6d706f6e656e742050726f6475636564000000000000000000008152506020019250505060405180910390a250505050565b6131248282613213565b15613197576040517f08c379a000000000000000000000000000000000000000000000000000000000815260040180806020018281038252601f8152602001807f526f6c65733a206163636f756e7420616c72656164792068617320726f6c650081525060200191505060405180910390fd5b60018260000160008373ffffffffffffffffffffffffffffffffffffffff1673ffffffffffffffffffffffffffffffffffffffff16815260200190815260200160002060006101000a81548160ff0219169083151502179055505050565b60006132096132026137bb565b8484613517565b6001905092915050565b60008073ffffffffffffffffffffffffffffffffffffffff168273ffffffffffffffffffffffffffffffffffffffff16141561329a576040517f08c379a00000000000000000000000000000000000000000000000000000000081526004018080602001828103825260228152602001806139b36022913960400191505060405180910390fd5b8260000160008373ffffffffffffffffffffffffffffffffffffffff1673ffffffffffffffffffffffffffffffffffffffff16815260200190815260200160002060009054906101000a900460ff16905092915050565b600073ffffffffffffffffffffffffffffffffffffffff168273ffffffffffffffffffffffffffffffffffffffff161415613394576040517f08c379a000000000000000000000000000000000000000000000000000000000815260040180806020018281038252601f8152602001807f45524332303a206d696e7420746f20746865207a65726f20616464726573730081525060200191505060405180910390fd5b80600260008282540192505081905550806000808473ffffffffffffffffffffffffffffffffffffffff1673ffffffffffffffffffffffffffffffffffffffff168152602001908152602001600020600082825401925050819055508173ffffffffffffffffffffffffffffffffffffffff16600073ffffffffffffffffffffffffffffffffffffffff167fddf252ad1be2c89b69c2b068fc378daa952ba7f163c4a11628f55a4df523b3ef836040518082815260200191505060405180910390a35050565b6134648282613213565b6134b9576040517f08c379a000000000000000000000000000000000000000000000000000000000815260040180806020018281038252602181526020018061396f6021913960400191505060405180910390fd5b60008260000160008373ffffffffffffffffffffffffffffffffffffffff1673ffffffffffffffffffffffffffffffffffffffff16815260200190815260200160002060006101000a81548160ff0219169083151502179055505050565b600073ffffffffffffffffffffffffffffffffffffffff168373ffffffffffffffffffffffffffffffffffffffff16141561359d576040517f08c379a00000000000000000000000000000000000000000000000000000000081526004018080602001828103825260258152602001806139d56025913960400191505060405180910390fd5b600073ffffffffffffffffffffffffffffffffffffffff168273ffffffffffffffffffffffffffffffffffffffff161415613623576040517f08c379a00000000000000000000000000000000000000000000000000000000081526004018080602001828103825260238152602001806139266023913960400191505060405180910390fd5b60008060008573ffffffffffffffffffffffffffffffffffffffff1673ffffffffffffffffffffffffffffffffffffffff168152602001908152602001600020549050818110156136bf576040517f08c379a00000000000000000000000000000000000000000000000000000000081526004018080602001828103825260268152602001806139496026913960400191505060405180910390fd5b8181036000808673ffffffffffffffffffffffffffffffffffffffff1673ffffffffffffffffffffffffffffffffffffffff16815260200190815260200160002081905550816000808573ffffffffffffffffffffffffffffffffffffffff1673ffffffffffffffffffffffffffffffffffffffff168152602001908152602001600020600082825401925050819055508273ffffffffffffffffffffffffffffffffffffffff168473ffffffffffffffffffffffffffffffffffffffff167fddf252ad1be2c89b69c2b068fc378daa952ba7f163c4a11628f55a4df523b3ef846040518082815260200191505060405180910390a350505050565b600033905090565b828054600181600116156101000203166002900490600052602060002090601f016020900481019282601f1061380457805160ff1916838001178555613832565b82800160010185558215613832579182015b82811115613831578251825591602001919060010190613816565b5b50905061383f91906138cd565b5090565b8280548282559060005260206000209081019282156138bc579160200282015b828111156138bb5782518260006101000a81548173ffffffffffffffffffffffffffffffffffffffff021916908373ffffffffffffffffffffffffffffffffffffffff16021790555091602001919060010190613863565b5b5090506138c991906138ea565b5090565b5b808211156138e65760008160009055506001016138ce565b5090565b5b8082111561392157600081816101000a81549073ffffffffffffffffffffffffffffffffffffffff0219169055506001016138eb565b509056fe45524332303a207472616e7366657220746f20746865207a65726f206164647265737345524332303a207472616e7366657220616d6f756e7420657863656564732062616c616e6365526f6c65733a206163636f756e7420646f6573206e6f74206861766520726f6c65436172626f6e20437265646974206465706f736974656420746f20636f6e7472616374526f6c65733a206163636f756e7420697320746865207a65726f206164647265737345524332303a207472616e736665722066726f6d20746865207a65726f2061646472657373a264697066735822122017ce7fc372dab5a03234429ef2e8c5f33c9b013c2ee3efa3b06ba1c39da5686264736f6c63430007010033526f6c65733a206163636f756e7420697320746865207a65726f2061646472657373",
  "immutableReferences": {},
  "source": "// SPDX-License-Identifier: MIT\r\n\r\npragma solidity ^0.7.0;\r\n\r\nimport \"./ERC20.sol\";\r\nimport \"./Roles.sol\";\r\n\r\ncontract CarbonCredit is ERC20(\"Carbon Credit\", \"CR\") {\r\n    address admin;\r\n\r\n    address[] public userList;\r\n    uint public userListCOunt = 0;\r\n\r\n    mapping(address => address[]) public componentList;\r\n    mapping(address => address[]) public carList;\r\n\r\n    event SystemLog(address indexed EventTriggeredBy, string EventAction, uint TokenConsumption);\r\n\r\n    using Roles for Roles.Role;\r\n\r\n    Roles.Role mangers;\r\n\r\n    struct component {\r\n        address maker;\r\n        string componentName;\r\n        uint quantity;\r\n        uint tokenConsumed;\r\n    }\r\n\r\n    struct car {\r\n        address maker;\r\n        string carModel;\r\n        uint tokenConsumed;\r\n        address[] componetList;\r\n    }\r\n\r\n    struct user {\r\n        string userName;\r\n        string userLocation;\r\n        string userType;\r\n    }\r\n\r\n    mapping (address => user) public userDetails;\r\n\r\n    mapping (address => component) public componentDetails;\r\n    mapping (address => car) public carDetails;\r\n    \r\n    constructor(uint initialSupplyAmpunt) {\r\n        admin = msg.sender;\r\n        mangers.add(msg.sender);\r\n        _mint(msg.sender, initialSupplyAmpunt);\r\n        _mint(address(this), initialSupplyAmpunt/2);\r\n        userDetails[msg.sender] = user(\"Manager\", \"London\", \"Admin\");\r\n    }\r\n\r\n    modifier onlyAuthorized() {\r\n        require(mangers.has(msg.sender),\"Not an authorized Person\");\r\n        _;\r\n    }\r\n\r\n    function depositeEther() onlyAuthorized payable public { emit SystemLog(msg.sender, \"Ether Deposited to COntract\", 0); }\r\n\r\n    function withdrawEther(uint amount) onlyAuthorized public {\r\n        msg.sender.transfer(amount * 1 ether);\r\n        emit SystemLog(msg.sender, \"Ether withdrawn from contract\", 0);\r\n    }\r\n\r\n    function issueCC(uint amount) onlyAuthorized public {\r\n        _mint(msg.sender, amount);\r\n        emit SystemLog(msg.sender, \"Carbon Credits Issued\", amount);\r\n    }\r\n\r\n    function depositeCC(uint amount) onlyAuthorized public {\r\n        transfer(address(this), amount);\r\n        emit SystemLog(msg.sender, \"Carbon Credit deposited to contract\", amount);\r\n    }\r\n\r\n    function getCC() payable public {\r\n        _transfer(address(this), msg.sender, (msg.value)/(10**10));\r\n        emit SystemLog(msg.sender, \"Bought Carbon Credit\", (msg.value)/(10**10));\r\n    }\r\n\r\n    function givebackCC(uint amount) public {\r\n        transfer(address(this), amount);\r\n        msg.sender.transfer(amount * 10**8);\r\n        emit SystemLog(msg.sender, \"Returned Carbon Credit\", amount);\r\n    }\r\n\r\n    function removeUser(address did) onlyAuthorized public {\r\n        userDetails[did].userType = \"Banned\";\r\n        emit SystemLog(msg.sender, \"Removed User\", 0);\r\n    }\r\n\r\n    function addManger(address _MangerAddress) public onlyAuthorized  {\r\n        mangers.add(_MangerAddress);\r\n        emit SystemLog(msg.sender, \"Authorized Manager\", 0);\r\n    }\r\n\r\n    function removeManger(address _MangerAddress) public onlyAuthorized {\r\n        mangers.remove(_MangerAddress);\r\n        emit SystemLog(msg.sender, \"Removed Manager Authorization\", 0);\r\n    }\r\n\r\n    function newUser(address _did, string memory _userName, string memory _userLocation, string memory _userType) public {\r\n        userDetails[_did] = user(_userName, _userLocation, _userType);\r\n        userList.push(_did);\r\n        userListCOunt += 1;\r\n        emit SystemLog(msg.sender, \"New User\", 0);\r\n    }   \r\n\r\n    function initialSupply( address[] memory initialSupplyAddressList, uint listCount,uint initialSupplyAmpunt) public onlyAuthorized {\r\n        require(msg.sender.balance > listCount * initialSupplyAmpunt);\r\n        for(uint i = 0; i < listCount; i++) {\r\n            transfer(initialSupplyAddressList[i], initialSupplyAmpunt);\r\n        }\r\n        emit SystemLog(msg.sender, \"Initial Supply\", listCount * initialSupplyAmpunt);\r\n    }\r\n\r\n    function getComponentList(address userDID) view public returns(address[] memory) {\r\n        return componentList[userDID];\r\n    }\r\n\r\n    function produceComponet(address componetID, string memory componentName, uint quantity, uint tokenConsumed) public {\r\n        componentDetails[componetID] = component(msg.sender, componentName, quantity, tokenConsumed);\r\n        transfer(admin, tokenConsumed);\r\n        componentList[msg.sender].push(componetID);\r\n        emit SystemLog(msg.sender, \"New Component Produced\", tokenConsumed);\r\n    }\r\n\r\n    function sendToOEM(address userDID,address componetID) public {\r\n        componentList[userDID].push(componetID);\r\n        componentDetails[componetID].quantity -= 1;\r\n        emit SystemLog(msg.sender, \"Transferred to OEM\", 0);\r\n    }\r\n\r\n    function getCarList(address userDID) view public returns(address[] memory) {\r\n        return carList[userDID];\r\n    }\r\n\r\n    function getCarDetails(address carDID) public view returns(address, string memory, uint, address[] memory) {\r\n        return(carDetails[carDID].maker, carDetails[carDID].carModel, carDetails[carDID].tokenConsumed, carDetails[carDID].componetList);\r\n    } \r\n\r\n    function assembleCar(address componetID, string memory carModel, uint tokenConsumed, address[] memory componetList) public {\r\n        carDetails[componetID] = car(msg.sender, carModel, tokenConsumed, componetList);\r\n        for(uint i = 0; i < componetList.length; i++) {\r\n            componentDetails[componetList[i]].quantity -= 1;\r\n        }\r\n        transfer(admin, tokenConsumed);\r\n        carList[msg.sender].push(componetID);\r\n        emit SystemLog(msg.sender, \"Car Assembled\", tokenConsumed);\r\n    }    \r\n}",
  "sourcePath": "E:\\carbon-credit\\scontract\\contracts\\CarbonCredit.sol",
  "compiler": {
    "name": "solc",
    "version": "0.7.1+commit.f4a555be.Emscripten.clang"
  },
  "schemaVersion": "3.4.2",
  "updatedAt": "2021-08-13T15:15:37.298Z",
  "networkType": "ethereum",
  "devdoc": {
    "kind": "dev",
    "methods": {},
    "version": 1
  },
  "userdoc": {
    "kind": "user",
    "methods": {},
    "version": 1
  }
}